{
  "contractName": "TestContract",
  "abi": [
    {
      "anonymous": false,
      "inputs": [
        {
          "indexed": false,
          "internalType": "uint256",
          "name": "newValue",
          "type": "uint256"
        }
      ],
      "name": "ValueChanged",
      "type": "event"
    },
    {
      "inputs": [
        {
          "internalType": "uint256",
          "name": "newValue",
          "type": "uint256"
        }
      ],
      "name": "setValue",
      "outputs": [],
      "stateMutability": "nonpayable",
      "type": "function"
    },
    {
      "inputs": [],
      "name": "getValue",
      "outputs": [
        {
          "internalType": "uint256",
          "name": "",
          "type": "uint256"
        }
      ],
      "stateMutability": "view",
      "type": "function"
    }
  ],
  "bytecode": "0x608060405234801561001057600080fd5b5061017e806100206000396000f3fe608060405234801561001057600080fd5b50600436106100365760003560e01c8063209652551461003b5780635524107714610059575b600080fd5b610043610075565b604051610050919061010c565b60405180910390f35b610073600480360381019061006e91906100d4565b61007e565b005b60008054905090565b806000819055507f93fe6d397c74fdf1402a8b72e47b68512f0510d7b98a4bc4cbdf6ac7108b3c59816040516100b4919061010c565b60405180910390a150565b6000813590506100ce81610131565b92915050565b6000602082840312156100e657600080fd5b60006100f4848285016100bf565b91505092915050565b61010681610127565b82525050565b600060208201905061012160008301846100fd565b92915050565b6000819050919050565b61013a81610127565b811461014557600080fd5b5056fea264697066735822122069a6d6bf864c746acebd22ea33332bad8504324972fa5d0ef8539721cfa8bf7464736f6c63430008040033",
  "immutableReferences": {},
  "source": "// SPDX-License-Identifier: MIT\r\npragma solidity ^0.8.4;\r\n\r\ncontract TestContract {\r\n    uint256 private value;\r\n\r\n    event ValueChanged(uint256 newValue);\r\n\r\n    function setValue(uint256 newValue) public {\r\n        value = newValue;\r\n        emit ValueChanged(newValue);\r\n    }\r\n\r\n    function getValue() public view returns (uint256) {\r\n        return value;\r\n    }\r\n}\r\n",
  "sourcePath": "D:\\repos\\Anzen-Tix\\chain\\contracts\\TestContract.sol",
  "compiler": {
    "name": "solc",
    "version": "0.8.4+commit.c7e474f2.Emscripten.clang"
  },
  "schemaVersion": "3.4.16",
  "updatedAt": "2025-01-29T12:20:50.922Z",
  "devdoc": {
    "kind": "dev",
    "methods": {},
    "version": 1
  },
  "userdoc": {
    "kind": "user",
    "methods": {},
    "version": 1
  }
}