{
  "contractName": "Ticketing",
  "abi": [
    {
      "inputs": [
        {
          "internalType": "uint256",
          "name": "_totalTickets",
          "type": "uint256"
        }
      ],
      "stateMutability": "nonpayable",
      "type": "constructor"
    },
    {
      "anonymous": false,
      "inputs": [
        {
          "indexed": true,
          "internalType": "address",
          "name": "buyer",
          "type": "address"
        },
        {
          "indexed": false,
          "internalType": "uint256",
          "name": "quantity",
          "type": "uint256"
        }
      ],
      "name": "TicketPurchased",
      "type": "event"
    },
    {
      "inputs": [],
      "name": "owner",
      "outputs": [
        {
          "internalType": "address",
          "name": "",
          "type": "address"
        }
      ],
      "stateMutability": "view",
      "type": "function"
    },
    {
      "inputs": [],
      "name": "ticketPrice",
      "outputs": [
        {
          "internalType": "uint256",
          "name": "",
          "type": "uint256"
        }
      ],
      "stateMutability": "view",
      "type": "function"
    },
    {
      "inputs": [
        {
          "internalType": "address",
          "name": "",
          "type": "address"
        }
      ],
      "name": "ticketsOwned",
      "outputs": [
        {
          "internalType": "uint256",
          "name": "",
          "type": "uint256"
        }
      ],
      "stateMutability": "view",
      "type": "function"
    },
    {
      "inputs": [],
      "name": "totalTickets",
      "outputs": [
        {
          "internalType": "uint256",
          "name": "",
          "type": "uint256"
        }
      ],
      "stateMutability": "view",
      "type": "function"
    },
    {
      "inputs": [
        {
          "internalType": "uint256",
          "name": "quantity",
          "type": "uint256"
        }
      ],
      "name": "buyTicket",
      "outputs": [],
      "stateMutability": "payable",
      "type": "function"
    },
    {
      "inputs": [],
      "name": "withdrawFunds",
      "outputs": [],
      "stateMutability": "nonpayable",
      "type": "function"
    },
    {
      "inputs": [],
      "name": "getContractBalance",
      "outputs": [
        {
          "internalType": "uint256",
          "name": "",
          "type": "uint256"
        }
      ],
      "stateMutability": "view",
      "type": "function"
    },
    {
      "inputs": [
        {
          "internalType": "address",
          "name": "_owner",
          "type": "address"
        }
      ],
      "name": "getTicketsOwned",
      "outputs": [
        {
          "internalType": "uint256",
          "name": "",
          "type": "uint256"
        }
      ],
      "stateMutability": "view",
      "type": "function"
    }
  ],
  "bytecode": "0x6080604052662386f26fc1000060015534801561001a575f80fd5b506040516109f33803806109f3833981810160405281019061003c91906100bf565b335f806101000a81548173ffffffffffffffffffffffffffffffffffffffff021916908373ffffffffffffffffffffffffffffffffffffffff16021790555080600281905550506100ea565b5f80fd5b5f819050919050565b61009e8161008c565b81146100a8575f80fd5b50565b5f815190506100b981610095565b92915050565b5f602082840312156100d4576100d3610088565b5b5f6100e1848285016100ab565b91505092915050565b6108fc806100f75f395ff3fe60806040526004361061007a575f3560e01c80638da5cb5b1161004d5780638da5cb5b14610104578063951e20211461012e578063dd11247e1461016a578063fded32ed146101945761007a565b80631209b1f61461007e57806324600fc3146100a857806367dd74ca146100be5780636f9fb98a146100da575b5f80fd5b348015610089575f80fd5b506100926101d0565b60405161009f91906104fd565b60405180910390f35b3480156100b3575f80fd5b506100bc6101d6565b005b6100d860048036038101906100d39190610544565b6102c8565b005b3480156100e5575f80fd5b506100ee61045a565b6040516100fb91906104fd565b60405180910390f35b34801561010f575f80fd5b50610118610461565b60405161012591906105ae565b60405180910390f35b348015610139575f80fd5b50610154600480360381019061014f91906105f1565b610484565b60405161016191906104fd565b60405180910390f35b348015610175575f80fd5b5061017e610499565b60405161018b91906104fd565b60405180910390f35b34801561019f575f80fd5b506101ba60048036038101906101b591906105f1565b61049f565b6040516101c791906104fd565b60405180910390f35b60015481565b5f8054906101000a900473ffffffffffffffffffffffffffffffffffffffff1673ffffffffffffffffffffffffffffffffffffffff163373ffffffffffffffffffffffffffffffffffffffff1614610263576040517f08c379a000000000000000000000000000000000000000000000000000000000815260040161025a90610676565b60405180910390fd5b5f8054906101000a900473ffffffffffffffffffffffffffffffffffffffff1673ffffffffffffffffffffffffffffffffffffffff166108fc4790811502906040515f60405180830381858888f193505050501580156102c5573d5f803e3d5ffd5b50565b5f811161030a576040517f08c379a000000000000000000000000000000000000000000000000000000000815260040161030190610704565b60405180910390fd5b80600154610318919061074f565b3414610359576040517f08c379a0000000000000000000000000000000000000000000000000000000008152600401610350906107da565b60405180910390fd5b80600254101561039e576040517f08c379a000000000000000000000000000000000000000000000000000000000815260040161039590610842565b60405180910390fd5b8060035f3373ffffffffffffffffffffffffffffffffffffffff1673ffffffffffffffffffffffffffffffffffffffff1681526020019081526020015f205f8282546103ea9190610860565b925050819055508060025f8282546104029190610893565b925050819055503373ffffffffffffffffffffffffffffffffffffffff167f0668f5b446eb814fe35b3206f43f14bd8567ba04ddaf7a3ee56516929ab22ccb8260405161044f91906104fd565b60405180910390a250565b5f47905090565b5f8054906101000a900473ffffffffffffffffffffffffffffffffffffffff1681565b6003602052805f5260405f205f915090505481565b60025481565b5f60035f8373ffffffffffffffffffffffffffffffffffffffff1673ffffffffffffffffffffffffffffffffffffffff1681526020019081526020015f20549050919050565b5f819050919050565b6104f7816104e5565b82525050565b5f6020820190506105105f8301846104ee565b92915050565b5f80fd5b610523816104e5565b811461052d575f80fd5b50565b5f8135905061053e8161051a565b92915050565b5f6020828403121561055957610558610516565b5b5f61056684828501610530565b91505092915050565b5f73ffffffffffffffffffffffffffffffffffffffff82169050919050565b5f6105988261056f565b9050919050565b6105a88161058e565b82525050565b5f6020820190506105c15f83018461059f565b92915050565b6105d08161058e565b81146105da575f80fd5b50565b5f813590506105eb816105c7565b92915050565b5f6020828403121561060657610605610516565b5b5f610613848285016105dd565b91505092915050565b5f82825260208201905092915050565b7f4f6e6c79206f776e65722063616e2077697468647261770000000000000000005f82015250565b5f61066060178361061c565b915061066b8261062c565b602082019050919050565b5f6020820190508181035f83015261068d81610654565b9050919050565b7f5175616e74697479206d7573742062652067726561746572207468616e207a655f8201527f726f000000000000000000000000000000000000000000000000000000000000602082015250565b5f6106ee60228361061c565b91506106f982610694565b604082019050919050565b5f6020820190508181035f83015261071b816106e2565b9050919050565b7f4e487b71000000000000000000000000000000000000000000000000000000005f52601160045260245ffd5b5f610759826104e5565b9150610764836104e5565b9250828202610772816104e5565b9150828204841483151761078957610788610722565b5b5092915050565b7f496e636f7272656374207061796d656e7420616d6f756e7400000000000000005f82015250565b5f6107c460188361061c565b91506107cf82610790565b602082019050919050565b5f6020820190508181035f8301526107f1816107b8565b9050919050565b7f4e6f7420656e6f756768207469636b65747320617661696c61626c65000000005f82015250565b5f61082c601c8361061c565b9150610837826107f8565b602082019050919050565b5f6020820190508181035f83015261085981610820565b9050919050565b5f61086a826104e5565b9150610875836104e5565b925082820190508082111561088d5761088c610722565b5b92915050565b5f61089d826104e5565b91506108a8836104e5565b92508282039050818111156108c0576108bf610722565b5b9291505056fea2646970667358221220194306201cf61bb4f0cd45e86f06602ea13cc8518b969a888f9d9c3a5c5fa65b64736f6c63430008150033",
  "immutableReferences": {},
  "source": "// SPDX-License-Identifier: MIT\r\npragma solidity ^0.8.20;\r\n\r\ncontract Ticketing {\r\n    address public owner;\r\n    uint public ticketPrice = 0.01 ether;\r\n    uint public totalTickets;\r\n    mapping(address => uint) public ticketsOwned;\r\n\r\n    event TicketPurchased(address indexed buyer, uint quantity);\r\n    \r\n    constructor(uint _totalTickets) {\r\n        owner = msg.sender;\r\n        totalTickets = _totalTickets;\r\n    }\r\n\r\n    function buyTicket(uint quantity) public payable {\r\n        require(quantity > 0, \"Quantity must be greater than zero\");\r\n        require(msg.value == ticketPrice * quantity, \"Incorrect payment amount\");\r\n        require(totalTickets >= quantity, \"Not enough tickets available\");\r\n\r\n        ticketsOwned[msg.sender] += quantity;\r\n        totalTickets -= quantity;\r\n\r\n        emit TicketPurchased(msg.sender, quantity);\r\n    }\r\n\r\n    function withdrawFunds() public {\r\n        require(msg.sender == owner, \"Only owner can withdraw\");\r\n        payable(owner).transfer(address(this).balance);\r\n    }\r\n\r\n    // New function to get the contract balance\r\n    function getContractBalance() public view returns (uint) {\r\n        return address(this).balance;\r\n    }\r\n\r\n    // New function to get the number of tickets owned by a specific address\r\n    function getTicketsOwned(address _owner) public view returns (uint) {\r\n        return ticketsOwned[_owner];\r\n    }\r\n}",
  "sourcePath": "D:\\repos\\Anzen-Tix\\chain\\contracts\\Contract.sol",
  "compiler": {
    "name": "solc",
    "version": "0.8.21+commit.d9974bed.Emscripten.clang"
  },
  "schemaVersion": "3.4.16",
  "updatedAt": "2025-01-29T11:47:59.003Z",
  "devdoc": {
    "kind": "dev",
    "methods": {},
    "version": 1
  },
  "userdoc": {
    "kind": "user",
    "methods": {},
    "version": 1
  }
}